:100000000C9434000C9451000C9451000C94510049
:100010000C9451000C9451000C9451000C9451001C
:100020000C9451000C9451000C9451000C9453000A
:100030000C9451000C9451000C9451000C945100FC
:100040000C9451000C9451000C9451000C945100EC
:100050000C9451000C9451000C9451000C945100DC
:100060000C9451000C94510011241FBECFEFD8E026
:10007000DEBFCDBF11E0A0E0B1E0E8E4F6E002C0F1
:1000800005900D92AC33B107D9F721E0ACE3B1E0B4
:1000900001C01D92AE33B207E1F70E9464010C94D7
:1000A00022030C9400001F920F920FB60F9211249E
:1000B0002F933F934F938F939F9382E088B98091C2
:1000C000000190910101883E23E0920729F490936A
:1000D0003D0180933C0107C08430910520F41092CB
:1000E0003D0110923C0120913C0130913D01283EA0
:1000F000334061F49C012150310930930101209378
:100100000001909389008093880004C010923D0103
:1001100010923C019F918F914F913F912F910F90A1
:100120000FBE0F901F9018959091C00095FFFCCFC7
:100130008093C6000895CF93DF93EC0189918823C3
:1001400019F00E949400FACFDF91CF910895809129
:100150007A00806480937A0080917A0086FDFCCFDB
:100160008091790090E00895E4E6F0E080818E7F50
:100170008083ECE7F0E080E480838081806280838C
:1001800080818560808380E880937A00089552980A
:1001900084B18F6084B93D98399A15B8089580EC80
:1001A00084BD84B5806384BD84B5836084BD17BC81
:1001B00018BCE0EBF0E080E3808380818360808383
:1001C0001092B40081E085BD8093B100E0E8F0E0DA
:1001D0008081806C8083808182608083E1E8F0E0B0
:1001E0008081886180838FB780688FBFEFE6F0E001
:1001F00080818260808388EE93E090938700809373
:100200008600909389008093880008959093C5009C
:100210008093C40088E18093C10086E08093C2008F
:10022000E0ECF0E080818F7B808308954F925F92B5
:100230006F927F928F929F92AF92BF92EF92FF92B6
:100240000F93CF93DF9300D000D000D0CDB7DEB7AF
:1002500029013A01462F50E0BE016F5F7F4F90E0C9
:100260000E94E202CE0101967C01812C912C540166
:1002700084149504A604B70459F0F70181917F0115
:100280000E949400FFEF8F1A9F0AAF0ABF0AF0CFB7
:10029000013031F48AE00E9494008DE00E949400C5
:1002A00026960FB6F894DEBF0FBECDBFDF91CF917B
:1002B0000F91FF90EF90BF90AF909F908F907F90A5
:1002C0006F905F904F90089588E090E00E94060143
:1002D0000E94CF000E94C7000E94B40082E091E01B
:1002E0000E949B0010E0312C612C712C94E6492E69
:1002F00055245A94C4E6D0E020E5E22EF12C3CE3EC
:10030000C32ED12C48E2A42EB12C51E1852E912C84
:100310004A991FC0133009F410E01F5F133019F41D
:100320008AE091E009C0123019F484E191E004C040
:10033000113021F48CE291E00E949B004A9BFECF99
:100340002FEF81EE94E0215080409040E1F700C013
:100350000000133009F0FCC018B817B815B88AB1FE
:1003600088668AB9809181008E7F809381000E9487
:10037000A700282E01E022E030E040E050E060E1FC
:100380000E941601211004C03012C2CF7394C0CF56
:10039000772009F4D8C0872D860D803119F080E1CF
:1003A000782E761800E023E030E040E050E06AE08C
:1003B000862D0E9416018CE70E94940001E023E044
:1003C00030E040E050E06AE0872D0E94160124E60C
:1003D000629EC00111243C0184E0759467948A9563
:1003E000E1F723E030E040E050E06AE0862D0E9433
:1003F000160181E18615D0F057BC649CC001112420
:10040000B4010E94BA02569EC001579E900D11245D
:10041000BE010E94BA02762E23E030E040E050E0B8
:100420006AE0872D0E94160178BC8AC08EEE860D88
:100430008131D0F4649CC0011124B5010E94BA023C
:10044000569EC001579E900D1124BE010E94BA0213
:1004500067BD87B501E023E030E040E050E06AE0AE
:100460000E94160158BC6CC08DED860D8031E8F4F9
:1004700017BC58BC649CC0011124B6010E94BA028A
:10048000569EC001579E900D1124BE010E94BA02D3
:100490006093B4008091B40001E023E030E040E0DC
:1004A00050E06AE00E9416014DC08DEC860D80314F
:1004B000D0F417BC649CC0011124B7010E94BA0299
:1004C000569EC001579E900D1124BE010E94BA0293
:1004D00068BD88B501E023E030E040E050E06AE02C
:1004E0000E94160115C08DEB860D8031A0F4659C2D
:1004F000C0011124BE010E94BA0267BD87B501E0A8
:1005000023E030E040E050E06AE00E94160118BCB1
:100510005092B40017C08DEA860D823198F457BC12
:10052000659CC0011124BE010E94BA0268BD88B555
:1005300001E023E030E040E050E06AE00E94160174
:100540001092B400612C639433243394712CE0CE68
:10055000113059F48AB187798AB992E297B98091BA
:10056000810081608093810003C0123009F0D0CEF9
:1005700015B9CECE97FB072E16F4009407D077FD61
:1005800009D00E94CE0207FC05D03EF490958195DB
:100590009F4F0895709561957F4F0895AA1BBB1BCF
:1005A00051E107C0AA1FBB1FA617B70710F0A61B73
:1005B000B70B881F991F5A95A9F780959095BC0194
:1005C000CD0108954532510520F4423010F00C94CD
:1005D000ED02FB011082CB010895BB274A3031F4B4
:1005E000992322F4BDE2909581959F4F0C94F902D6
:1005F000BB27FB015527AA27880F991FAA1FA417FD
:1006000010F0A41B83955051B9F7A05DAA3308F0F0
:10061000A95DA193009779F7B111B1931192CB0124
:100620000C941203DC01FC01672F71917723E1F731
:10063000329704C07C916D9370836291AE17BF07AF
:08064000C8F30895F894FFCF00
:10064800E80353746172740A0D005278206D6F6468
:10065800650A0D005478206D6F646520506F7465CD
:100668006E74696F6D657472650A0D005478206D3B
:0C0678006F6465206175746F0A0D00004E
:00000001FF
