:100000000C9434000C943E000C943E000C943E0082
:100010000C943E000C943E000C943E000C943E0068
:100020000C943E000C943E000C943E000C943E0058
:100030000C943E000C943E000C943E000C943E0048
:100040000C943E000C943E000C943E000C943E0038
:100050000C943E000C943E000C943E000C943E0028
:100060000C943E000C943E0011241FBECFEFD8E04C
:10007000DEBFCDBF0E9463000C94DD000C94000035
:100080009091C00095FFFCCF8093C60008958091A9
:100090007A00806480937A0080917A0086FDFCCF9C
:1000A0008091790008959093C5008093C40088E101
:1000B0008093C10086E08093C200E0ECF0E0808194
:1000C0008F7B80830895CF93DF9300D000D0CDB78E
:1000D000DEB788E090E00E945300809164008E7F3C
:1000E0008093640080E480937C0080917C00806237
:1000F00080937C0080917C00846080937C0080E809
:1001000080937A000E944700082F0E944700182F12
:100110008017D9F340E1BE016F5F7F4F90E00E94EE
:10012000A80089810E9440008A810E9440008AE0E4
:100130000E9440008DE00E9440002FEF81EE94E08D
:10014000215080409040E1F700C00000012FDDCF3A
:10015000BB274A3031F4992322F4BDE29095819572
:100160009F4F0C94B400BB27FB015527AA27880F8B
:10017000991FAA1FA41710F0A41B83955051B9F71B
:10018000A05DAA3308F0A95DA193009779F7B1119A
:10019000B1931192CB010C94CD00DC01FC01672FCF
:1001A00071917723E1F7329704C07C916D9370834E
:0E01B0006291AE17BF07C8F30895F894FFCF11
:00000001FF
