:100000000C9434000C943E000C943E000C943E0082
:100010000C943E000C943E000C943E000C943E0068
:100020000C943E000C943E000C943E000C943E0058
:100030000C943E000C943E000C943E000C943E0048
:100040000C943E000C943E000C943E000C943E0038
:100050000C943E000C943E000C943E000C943E0028
:100060000C943E000C943E0011241FBECFEFD8E04C
:10007000DEBFCDBF0E949A000C94D1000C9400000A
:100080009091C00095FFFCCF8093C60008958091A9
:100090007A00806480937A0080917A0086FDFCCF9C
:1000A000809179000895E4E6F0E080818E7F80837E
:1000B000ECE7F0E080E4808380818062808380814F
:1000C0008460808380E880937A0008959093C500CF
:1000D0008093C40088E18093C10086E08093C200D1
:1000E000E0ECF0E080818F7B80830895229880ECA3
:1000F00084BD84B5806384BD84B5836084BD8BE496
:1001000087BD18BCE0EBF0E080E3808380818360F2
:10011000808382E88093B40081E085BD8093B10044
:10012000089552988AB188668AB984B18F6084B97B
:1001300015B8089588E090E00E9466000E94530080
:100140000E9476000E949100C0E0D4E018E00E9476
:1001500047004A990DC0CF5FC33009F4C0E02FEFCC
:1001600031EE94E0215030409040E1F700C00000B3
:10017000C11103C015B987BD0AC0C13019F4D5B982
:1001800088BD05C0C23019F4C5B98093B4002FEF03
:1001900031EE84E0215030408040E1F700C00000A3
:0601A000D6CFF894FFCF5A
:00000001FF
