:100000000C9434000C943E000C943E000C943E0082
:100010000C943E000C943E000C943E000C943E0068
:100020000C943E000C943E000C943E000C943E0058
:100030000C943E000C943E000C943E000C943E0048
:100040000C943E000C943E000C943E000C943E0038
:100050000C943E000C943E000C943E000C943E0028
:100060000C943E000C943E0011241FBECFEFD8E04C
:10007000DEBFCDBF0E9452000C948D000C94000096
:10008000F999FECF937092BD81BDF89A80B508951D
:10009000F999FECF937092BD81BD60BD84E08FBBA6
:1000A000F99A0895529884B18F6084B980E090E005
:1000B0000E9440008A3A61F481E090E00E94400092
:1000C000853531F482E090E00E944000C82F10C0D6
:1000D0006AEA80E090E00E94480065E581E090E0F7
:1000E0000E94480060E082E090E00E944800C0E08A
:1000F00015B84A99FECFCF5F6C2F82E090E00E9446
:1001000048008C2F8F7085B980E095E3ACE0B0E0BB
:0E0110000197A109B109E1F7ECCFF894FFCFF8
:00000001FF
