:100000000C9434000C9449000C9449000C94490061
:100010000C9449000C9449000C9449000C9449003C
:100020000C9449000C9449000C9449000C9449002C
:100030000C9449000C9449000C9449000C9449001C
:100040000C9449000C9449000C9449000C9449000C
:100050000C9449000C9449000C9449000C944900FC
:100060000C9449000C94490011241FBECFEFD8E036
:10007000DEBFCDBF11E0A0E0B1E0E4E6F4E002C0F5
:1000800005900D92AA37B107D9F70E94FC010C9494
:1000900030020C9400008091C00087FFFCCF80915B
:1000A000C60008959091C00095FFFCCF8093C600D4
:1000B0000895CF93DF93EC018991882319F00E9472
:1000C0005200FACFDF91CF910895AC01FB01DC0122
:1000D0009D01241B350B9D91992319F0819198174F
:1000E000B9F3FB01E20FF31F8081981B892F08955C
:1000F000CF92DF92EF92FF920F931F93CF93DF93F4
:100100002AE0C22ED12CE12CF12C6A307105810538
:10011000910578F0A70196010E940E028B01D82F5D
:10012000C92FCA01B9010E947800B8018D2F9C2FF8
:10013000ECCF80E3860FDF91CF911F910F91FF905D
:10014000EF90DF90CF900C945200F999FECF93700E
:1001500092BD81BDF89A80B50895F999FECF93704C
:1001600092BD81BD60BDFA9AF99A0895CF92DF924F
:10017000EF92FF92CF93DF93C12CD12C7601D70160
:10018000C6018F709927AA27BB27892B8A2B8B2B17
:1001900069F4C114D104E104F10421F086E791E08F
:1001A0000E945900C701B6010E94780080E20E94B7
:1001B000520080E20E945200C6010E94A500C82F92
:1001C000E82FEF70F0E0E050FF4FD081E82FE07FA4
:1001D000F0E0E050FF4F80810E9452008D2F0E947E
:1001E00052008C2F0E94520080E20E9452008FEF3A
:1001F000C81AD80AE80AF80AC11484E0D806E1044B
:10020000F10409F0BCCFDF91CF91FF90EF90DF9028
:10021000CF9008958F929F92AF92BF92CF92DF922C
:10022000EF92FF921F93CF93DF93CDB7DEB7D250FB
:100230000FB6F894DEBF0FBECDBFC12CD12C760116
:100240000E944B008D30D9F4E1E0F0E0EC0FFD1F8F
:10025000EC0DFD1D108286E791E00E94590065E1DA
:1002600071E0CE0101960E946500182F81113BC0FC
:100270000E94B60086E791E00E9459009AC0C1141E
:10028000E2E0DE06E104F104F8F68F3779F4C114F8
:10029000D104E104F104A1F281E191E00E9459004E
:1002A00081E0C81AD108E108F108CACF803298F07D
:1002B000460157019FEF891A990AA90AB90AE1E094
:1002C000F0E0EC0FFD1FEC0DFD1D80830E9452003D
:1002D00075016401B5CF8B3109F0B2CF0E944B009C
:1002E0000E944B00ADCF6DE171E0CE0101960E94FE
:1002F000650081115DC083E291E00E945900C12C2C
:10030000D12C76010E944B008D3089F4E1E0F0E0C1
:10031000EC0FFD1FEC0DFD1D108286E791E00E94A1
:100320005900FE0131967F01C12CD12C34C0C1147B
:10033000F2E0DF06E104F10448F78F3779F4C114E5
:10034000D104E104F104F1F281E191E00E9459004D
:10035000F1E0CF1AD108E108F108D4CF803298F04B
:10036000460157019FEF891A990AA90AB90AE1E0E3
:10037000F0E0EC0FFD1FEC0DFD1D80830E9452008C
:1003800075016401BFCF8B3109F0BCCF0E944B00D7
:100390000E944B00B7CFF70111917F01112349F063
:1003A000612FC6010E94AD008FEFC81AD80AF3CFA3
:1003B00011E0812FDE5F0FB6F894DEBF0FBECDBF18
:1003C000DF91CF911F91FF90EF90DF90CF90BF9082
:1003D000AF909F908F9008959093C5008093C40034
:1003E00088E18093C10086E08093C200E0ECF0E0F9
:1003F00080818F7B80830895539888E090E00E94ED
:10040000EC0183E391E00E9459000E940A018823D5
:10041000C1F386E391E00E945900F3CFA1E21A2EC6
:10042000AA1BBB1BFD010DC0AA1FBB1FEE1FFF1F98
:10043000A217B307E407F50720F0A21BB30BE40BE8
:10044000F50B661F771F881F991F1A9469F760952F
:100450007095809590959B01AC01BD01CF010895E9
:04046000F894FFCF3E
:1004640030313233343536373839414243444546E6
:10047400000820080068657864756D7000777269FB
:1004840074650020206D6178203531322063686105
:100494007273203E2000436F6D6D616E64206E6F39
:1004A4007420666F756E642E204F6E6C79206B6EAF
:1004B4006F776E3A207772697465205B454E5445B8
:1004C400525D20226D792076616C7565222C20683E
:0A04D400657864756D700A0D000074
:00000001FF
