:100000000C9434000C943E000C943E000C943E0082
:100010000C943E000C943E000C943E000C943E0068
:100020000C943E000C943E000C943E000C943E0058
:100030000C943E000C943E000C943E000C943E0048
:100040000C943E000C943E000C943E000C943E0038
:100050000C943E000C943E000C943E000C943E0028
:100060000C943E000C943E0011241FBECFEFD8E04C
:10007000DEBFCDBF0E9440000C9458000C940000DD
:1000800081E084B9219A229A239A1AB815B880E09F
:100090004B99FECF8F5F982F9F7095B940E452E443
:1000A0006FE070E04150510961097109D9F7F0CF53
:0400B000F894FFCFF2
:00000001FF
