:100000000C9434000C9449000C9449000C94490061
:100010000C9449000C9449000C9449000C9449003C
:100020000C9449000C9449000C9449000C9449002C
:100030000C9449000C9449000C9449000C9449001C
:100040000C9449000C9449000C9449000C9449000C
:100050000C9449000C9449000C9449000C944900FC
:100060000C9449000C94490011241FBECFEFD8E036
:10007000DEBFCDBF11E0A0E0B1E0E8EEF2E002C0EB
:1000800005900D92AE34B107D9F70E9448010C9447
:1000900072010C9400008091C00087FFFCCF80911A
:1000A000C60008959091C00095FFFCCF8093C600D4
:1000B0000895CF93DF93EC018991882319F00E9472
:1000C0005200FACFDF91CF910895FC019F01281BC8
:1000D000390B41914111FACFC9010895FB0191916A
:1000E000BF01992321F09813F9CF80E0089581E0B2
:1000F0000895E0E0F1E09F01205031409191992373
:1001000011F09813F8CFC90108958F929F92AF9282
:10011000BF92CF92DF92EF92FF921F93CF93DF9324
:10012000CDB7DEB7D2500FB6F894DEBF0FBECDBF4D
:10013000C12CD12C76010E944B008D3081F4E1E07E
:10014000F0E0EC0FFD1FEC0DFD1D10828AE491E044
:100150000E9459008981833209F076C039C0C114E8
:10016000E2E0DE06E104F10450F78F3779F4C114C0
:10017000D104E104F104F9F281E191E00E94590017
:1001800081E0C81AD108E108F108D5CF8032C4F067
:100190009FEB980F9A3108F4805E460157019FEF5C
:1001A000891A990AA90AB90AE1E0F0E0EC0FFD1FEB
:1001B000EC0DFD1D80830E94520075016401BBCFD0
:1001C0008B3109F0B8CF0E944B000E944B00B3CF97
:1001D000CE0101960E9465000897B0F57E01F2E01D
:1001E000EF0EF11CF70111917F01112341F060E046
:1001F00071E0812F0E946E008823A1F325C08AB18F
:1002000088668AB98A810E947900F82E8B810E94C3
:100210007900F29490EFF9228F2987BD8C810E949A
:100220007900F82E8D810E947900F29420EFF2225D
:100230008F2988BD8F810E947900982F9295907F99
:10024000892B8093B40001C011E0812FDE5F0FB6CF
:10025000F894DEBF0FBECDBFDF91CF911F91FF900D
:10026000EF90DF90CF90BF90AF909F908F900895C8
:100270009093C5008093C40088E18093C10086E01C
:100280008093C200E0ECF0E080818F7B8083089552
:1002900088E090E00E943801229880EC84BD84B50B
:1002A000806384BD84B5836084BD17BC18BC80E3C3
:1002B0008093B0008091B00083608093B000109272
:1002C000B40081E085BD8093B10085E191E00E949A
:1002D00059000E9485008823C1F388E191E00E94C3
:0802E0005900F3CFF894FFCFA1
:1002E80030313233343536373839616263646566A4
:1002F80000082008003E200042616420666F726D8D
:1003080061742E2045787065637465643A202358BB
:1003180058585858582E202858206973206120684A
:0E032800657861206469676974290A0D000018
:00000001FF
