:100000000C9434000C9449000C9449000C94490061
:100010000C9449000C9449000C9449000C9449003C
:100020000C9449000C9449000C9449000C945E0017
:100030000C9449000C9449000C9449000C9449001C
:100040000C9449000C9449000C9449000C9449000C
:100050000C9449000C9449000C9449000C944900FC
:100060000C9449000C94490011241FBECFEFD8E036
:10007000DEBFCDBF11E0A0E0B1E0E6E4F1E002C0F8
:1000800005900D92A031B107D9F70E9485000C941C
:10009000A1000C9400008093C60008959093C500C1
:1000A0008093C40088E18093C10086E08093C20001
:1000B000E0ECF0E080818F7B808308951F920F92A7
:1000C0000FB60F9211248F939F93EF93FF9380E0CD
:1000D000E82FF0E0E050FF4F9081992369F0909174
:1000E000C00095FFF5CFE82FF0E0E050FF4F908182
:1000F0009093C6008F5FF3CFFF91EF919F918F9107
:100100000F900FBE0F901F90189588E090E00E940E
:100110004E008FB780688FBF83E48093800088E1B2
:10012000809381008091810085608093810082E1CD
:100130009AE7909389008093880082E080936F0013
:06014000FFCFF894FFCF91
:1001460048656C6C6F20576F726C64210A0D000055
:00000001FF
