:100000000C9434000C9449000C9449000C94490061
:100010000C9449000C9449000C9449000C9449003C
:100020000C9449000C9449000C9449000C9449002C
:100030000C9449000C9449000C9449000C9449001C
:100040000C9449000C9449000C9449000C9449000C
:100050000C9449000C9449000C9449000C944900FC
:100060000C9449000C94490011241FBECFEFD8E036
:10007000DEBFCDBF11E0A0E0B1E0E4EDF0E002C0F2
:1000800005900D92A830B107D9F70E944B000C944F
:1000900068000C94000022988AB188668AB98FEFB4
:1000A0008BB9E0E04A99FECFE73009F4E0E021E0C7
:1000B0002E0FF0E0E050FF4F80818BB980E095E398
:1000C000ACE0B0E00197A109B109E1F7E22FEACF76
:0400D000F894FFCFD2
:0800D4002848600840200000EC
:00000001FF
