:100000000C9434000C9449000C9449000C94490061
:100010000C9449000C9449000C9449000C9449003C
:100020000C9449000C9449000C9449000C9449002C
:100030000C9449000C9449000C9449000C9449001C
:100040000C9449000C9449000C9449000C9449000C
:100050000C9449000C9449000C9449000C944900FC
:100060000C9449000C94490011241FBECFEFD8E036
:10007000DEBFCDBF12E0A0E0B1E0E0ECF3E002C0F3
:1000800005900D92A430B107D9F70E94CA010C94D3
:10009000DE010C940000AC01FB01DC019D01241B7E
:1000A000350B9D91992319F081919817B9F3FB01B4
:1000B000E20FF31F8081981B892F08959093C5004C
:1000C0008093C40088E18093C10086E08093C200E1
:1000D000E0ECF0E080818F7B808308958091C00008
:1000E00087FFFCCF8091C60008959091C00095FFD6
:1000F000FCCF8093C6000895CF93DF93EC018991E4
:10010000882319F00E947500FACFDF91CF910895EE
:100110008F929F92AF92BF92CF92DF92EF92FF9217
:100120001F93CF93DF93CDB7DEB7D2500FB6F894BD
:10013000DEBF0FBECDBF80E091E00E947C00C12CED
:10014000D12C76010E946E008D30B1F4E1E0F0E038
:10015000EC0FFD1FEC0DFD1D108280E092E00E946F
:100160007C006BE171E0CE0101960E944B00182FDC
:100170008823B9F111E079C0C11422E0D206E1046C
:10018000F10420F78F3779F4C114D104E104F104AC
:10019000C9F287E191E00E947C0021E0C21AD108F7
:1001A000E108F108CFCF8032A4F0460157019FEF5C
:1001B000891A990AA90AB90AE1E0F0E0EC0FFD1FDB
:1001C000EC0DFD1D80838AE20E94750075016401BB
:1001D000B9CF8B3109F0B6CF0E946E000E946E003D
:1001E000B1CF80E291E00E947C0080E391E00E9428
:1001F0007C0089E391E00E947C0088E085B98FEF64
:1002000093EC29E0815090402040E1F700C00000CD
:1002100084E085B98FEF93EC29E081509040204035
:10022000E1F700C0000082E085B98FEF93EC29E090
:10023000815090402040E1F700C0000081E085B986
:100240008FEF93EC29E0815090402040E1F700C00F
:1002500000008FE085B98FEF93EC29E0815090404A
:100260002040E1F700C0000015B8812FDE5F0FB617
:10027000F894DEBF0FBECDBFDF91CF911F91FF90ED
:10028000EF90DF90CF90BF90AF909F908F900895A8
:100290008F929F92AF92BF92CF92DF92EF92FF9296
:1002A000CF93DF93CDB7DEB7D2500FB6F894DEBF51
:1002B0000FBECDBF15B88AE591E00E947C00C12C2D
:1002C000D12C76010E946E008D30A1F4E1E0F0E0C7
:1002D000EC0FFD1FEC0DFD1D108280E092E00E94EE
:1002E0007C0060E371E0CE0101960E944B00882300
:1002F000A9F138C0C11492E0D906E104F10430F745
:100300008F3779F4C114D104E104F104D9F287E103
:1003100091E00E947C0081E0C81AD108E108F10850
:10032000D1CF80329CF0460157019FEF891A990A7C
:10033000A90AB90AE1E0F0E0EC0FFD1FEC0DFD1D8C
:1003400080830E94750075016401BCCF8B3109F078
:10035000B9CF0E946E000E946E00B4CF0E94880048
:10036000882339F081E791E00E947C008FE085B915
:1003700081E0DE5F0FB6F894DEBF0FBECDBFDF9128
:10038000CF91FF90EF90DF90CF90BF90AF909F9074
:100390008F90089588E084B9229A219A209A88E063
:1003A00090E00E945E0087EC91E00E947C000E9439
:1003B00048018111F8CF80E090E00895F894FFCFD4
:1003C0001B5B313B33346D0970617373776F7264FB
:1003D0003A201B5B306D0008200800726F6F7400BC
:1003E0001B5B313B33326D57656C636F6D6520006D
:1003F000796D617263696C6C002021204D792074E5
:1004000072756520616E64206F6E6C79206672690A
:10041000656E641B5B306D0A0D001B5B313B333432
:100420006D09757365726E616D653A201B5B306D89
:10043000001B5B303B33316D4D61757661697365CF
:1004400020636F6D62696E6169736F6E207573658D
:10045000726E616D652F70617373776F7264206D5A
:1004600079206C6F726420286C6F6C207472792014
:10047000616761696E2064756D62617373290A0A30
:100480000A0D1B5B306D00426F6E6A6F7572206DD6
:100490006F6E20616D692865292C20656E74726508
:1004A0007A20766F73206964656E74696669616E1F
:1004B0007473206A6520766F757320707269653A6F
:0404C0000A0D000021
:00000001FF
