:100000000C9434000C9449000C9449000C94490061
:100010000C9449000C9449000C9449000C9449003C
:100020000C9449000C9449000C9449000C9449002C
:100030000C9449000C9449000C9449000C9449001C
:100040000C9449000C9449000C9449000C9449000C
:100050000C9449000C9449000C9449000C944900FC
:100060000C9449000C94490011241FBECFEFD8E036
:10007000DEBFCDBF11E0A0E0B1E0E8E2F1E002C0F8
:1000800005900D92AC30B107D9F70E944B000C944B
:1000900092000C940000229880EC84BD84B58063AB
:1000A00084BD84B5836084BD17BC18BC80E3809395
:1000B000B0008091B00083608093B0001092B400D3
:1000C00081E085BD8093B10080E04A99FECF9AB16E
:1000D00098669AB9833008F080E094E0899FF00137
:1000E0001124E050FF4F4081518162817381AB0147
:1000F0006627772747BD4081518162817381452FF3
:10010000562F672F772748BD90819093B4008F5F5B
:1001100040E055E36CE070E041505109610971091C
:08012000D9F7D3CFF894FFCF0B
:0C0128004F18F200A1E0190082004B000B
:00000001FF
