:100000000C9434000C943E000C943E000C943E0082
:100010000C943E000C943E000C943E000C943E0068
:100020000C943E000C943E000C943E000C943E0058
:100030000C943E000C943E000C943E000C943E0048
:100040000C943E000C943E000C943E000C943E0038
:100050000C943E000C943E000C943E000C943E0028
:100060000C943E000C943E0011241FBECFEFD8E04C
:10007000DEBFCDBF0E945E000C9467000C940000B0
:100080008091C00087FFFCCF8091C60008959091B9
:10009000C00095FFFCCF8093C60008959093C500E3
:1000A0008093C40088E18093C10086E08093C20001
:1000B000E0ECF0E080818F7B8083089588E090E021
:1000C0000E944E000E9440000E944700FBCFF8941F
:0200D000FFCF60
:00000001FF
