:100000000C9434000C9446000C9454010C9446005B
:100010000C9446000C9446000C9446000C94460048
:100020000C9446000C9446000C9446000C94460038
:100030000C9446000C9446000C9446000C94460028
:100040000C9446000C9446000C94F0010C9446006D
:100050000C9446000C9446000C9446000C94460008
:100060000C9446000C94460011241FBECFEFD8E03C
:10007000DEBFCDBF21E0A0E0B1E001C01D92A630FF
:10008000B207E1F70E94B9020C94F2020C9400004E
:10009000CF93DF931F92CDB7DEB78983000080EC4A
:1000A00090E0FC018081882F90E080729927892B55
:1000B000B1F386EC90E02981FC01208300000F90D1
:1000C000DF91CF910895CF93DF931F92CDB7DEB725
:1000D000000080EC90E0FC0180818823D4F786EC5E
:1000E00090E0FC018081898389810F90DF91CF911D
:1000F0000895CF93DF93CDB7DEB760970FB6F8942E
:10010000DEBF0FBECDBF85E290E028E0FC0120837A
:1001100019821A821B821C820BC089819A81AB8151
:10012000BC810196A11DB11D89839A83AB83BC83D9
:1001300089819A81AB81BC8180349D40A340B10507
:1001400060F385E290E024E0FC0120831D821E82A2
:100150001F8218860BC08D819E81AF81B885019664
:10016000A11DB11D8D839E83AF83B8878D819E8134
:10017000AF81B88580349D40A340B10560F385E22E
:1001800090E022E0FC01208319861A861B861C86DB
:100190000BC089859A85AB85BC850196A11DB11DD3
:1001A00089879A87AB87BC8789859A85AB85BC850B
:1001B00080349D40A340B10560F385E290E021E0EA
:1001C000FC0120831D861E861F86188A0BC08D8524
:1001D0009E85AF85B8890196A11DB11D8D879E872B
:1001E000AF87B88B8D859E85AF85B88980349D405B
:1001F000A340B10560F385E290E0FC01108281E04C
:1002000080930401000060960FB6F894DEBF0FBE25
:10021000CDBFDF91CF910895CF93DF93CDB7DEB7F8
:100220001092000110920301109204011092020139
:1002300010920101109205010000DF91CF91089505
:10024000CF93DF9300D000D0CDB7DEB785E290E04A
:1002500025E230E0F90120812F60FC012083198222
:100260001A821B821C820BC089819A81AB81BC815E
:100270000196A11DB11D89839A83AB83BC838981BB
:100280009A81AB81BC8180349D40A340B10560F36D
:1002900085E290E0FC01108200000F900F900F901B
:1002A0000F90DF91CF9108951F920F9200905F0001
:1002B0000F9211242F933F934F935F936F937F93EC
:1002C0008F939F93AF93BF93EF93FF93CF93DF935E
:1002D00000D000D0CDB7DEB7000089E290E0FC018D
:1002E0008081882F90E088709927892BB1F319823B
:1002F0001A821B821C820BC089819A81AB81BC81CE
:100300000196A11DB11D89839A83AB83BC8389812A
:100310009A81AB81BC81843F9140A105B10560F316
:1003200080910001882391F480910401882371F465
:1003300081E00E94480080910201882319F481E045
:100340008093010181E08093000131C08091000120
:10035000813069F580910301813079F48091040145
:10036000813059F480910201882339F481E080932F
:10037000050186E00E9448001AC080910301813087
:1003800071F480910401882351F480910201882343
:1003900031F41092050187E00E94480008C0809166
:1003A0000201813021F488E00E94480000C0000072
:1003B0000F900F900F900F90DF91CF91FF91EF91E1
:1003C000BF91AF919F918F917F916F915F914F916D
:1003D0003F912F910F9000925F000F901F90189502
:1003E0001F920F9200905F000F9211242F933F9362
:1003F0004F935F936F937F938F939F93AF93BF932D
:10040000EF93FF93CF93DF931F92CDB7DEB700003A
:1004100080EC90E0FC0180818823D4F786EC90E0AA
:10042000FC01808189838981813089F48091000178
:10043000813049F482E00E94480081E0809303010A
:100440000E94790038C081E08093020134C0898124
:10045000823031F481E0809303010E9479002BC047
:1004600089818830C1F480910101813021F580912A
:100470000501813021F080910401882341F40E941C
:10048000200186E00E9448000E940C0114C087E011
:100490000E94480010C08981873029F40E940C0115
:1004A0000E94200108C08981833019F0898186303B
:1004B00011F40E940C0100000F90DF91CF91FF9189
:1004C000EF91BF91AF919F918F917F916F915F91CC
:1004D0004F913F912F910F9000925F000F901F90CE
:1004E0001895CF93DF9300D0CDB7DEB79A83898379
:1004F00085EC90E029813A81232F3327FC0120836A
:1005000084EC90E02981FC01208381EC90E028E1DB
:10051000FC01208382EC90E024E0FC01208382EC4B
:1005200090E022EC30E0F90120812063FC0120837F
:1005300082EC90E022EC30E0F90120812860FC019F
:10054000208380EC90E020EC30E0F90120812064F1
:10055000FC01208381EC90E021EC30E0F901208166
:100560002068FC01208300000F900F90DF91CF9155
:100570000895CF93DF93CDB7DEB78FE590E02FE5F9
:1005800030E0F90120812068FC0120838DE390E0B8
:1005900022E0FC01208389E690E029E630E0F901C1
:1005A00020812860FC0120838AE290E02AE230E08A
:1005B000F9012081277FFC01208384E290E024E27E
:1005C00030E0F90120812F60FC01208386E090E07B
:1005D0000E94710283E00E94480085E290E0FC01E5
:0805E0001082FFCFF894FFCF59
:00000001FF
