:100000000C9434000C9446000C9440010C9446006F
:100010000C9446000C9446000C9446000C94460048
:100020000C9446000C9446000C9446000C94460038
:100030000C9446000C9446000C9446000C94460028
:100040000C9446000C9446000C94A6010C944600B7
:100050000C9446000C9446000C9446000C94460008
:100060000C9446000C94460011241FBECFEFD8E03C
:10007000DEBFCDBF21E0A0E0B1E001C01D92A43001
:10008000B207E1F70E944C020C9485020C94000028
:10009000CF93DF931F92CDB7DEB78983000080EC4A
:1000A00090E0FC018081882F90E080729927892B55
:1000B000B1F386EC90E02981FC01208300000F90D1
:1000C000DF91CF910895CF93DF931F92CDB7DEB725
:1000D000000080EC90E0FC0180818823D4F786EC5E
:1000E00090E0FC018081898389810F90DF91CF911D
:1000F0000895CF93DF93CDB7DEB760970FB6F8942E
:10010000DEBF0FBECDBF85E290E028E0FC0120837A
:1001100019821A821B821C820BC089819A81AB8151
:10012000BC810196A11DB11D89839A83AB83BC83D9
:1001300089819A81AB81BC8180349D40A340B10507
:1001400060F385E290E024E0FC0120831D821E82A2
:100150001F8218860BC08D819E81AF81B885019664
:10016000A11DB11D8D839E83AF83B8878D819E8134
:10017000AF81B88580349D40A340B10560F385E22E
:1001800090E022E0FC01208319861A861B861C86DB
:100190000BC089859A85AB85BC850196A11DB11DD3
:1001A00089879A87AB87BC8789859A85AB85BC850B
:1001B00080349D40A340B10560F385E290E021E0EA
:1001C000FC0120831D861E861F86188A0BC08D8524
:1001D0009E85AF85B8890196A11DB11D8D879E872B
:1001E000AF87B88B8D859E85AF85B88980349D405B
:1001F000A340B10560F385E290E0FC01108281E04C
:1002000080930101000060960FB6F894DEBF0FBE28
:10021000CDBFDF91CF910895CF93DF9300D000D071
:10022000CDB7DEB785E290E025E230E0F90120812C
:100230002F60FC01208319821A821B821C820BC052
:1002400089819A81AB81BC810196A11DB11D8983F1
:100250009A83AB83BC8389819A81AB81BC818034D2
:100260009D40A340B10560F385E290E0FC0110825F
:1002700000000F900F900F900F90DF91CF91089595
:100280001F920F9200905F000F9211242F933F93C3
:100290004F935F936F937F938F939F93AF93BF938E
:1002A000EF93FF93CF93DF93CDB7DEB78091030138
:1002B000813019F41092030129C080910001882334
:1002C00039F481E08093000182E70E9448001EC05B
:1002D000809100018130D1F4809102018130B1F42C
:1002E00080910101813041F48CE60E9448000E9417
:1002F0000C01109203010AC080910101882331F49E
:1003000087E70E94480081E080930301000089E2B2
:1003100090E0FC018081882F90E088709927892BDC
:10032000B1F70000DF91CF91FF91EF91BF91AF91B5
:100330009F918F917F916F915F914F913F912F91FD
:100340000F9000925F000F901F9018951F920F92D0
:1003500000905F000F9211242F933F934F935F9370
:100360006F937F938F939F93AF93BF93EF93FF937D
:10037000CF93DF931F92CDB7DEB7000080EC90E003
:10038000FC0180818823D4F786EC90E0FC01808119
:1003900089838981823779F481E080930201809199
:1003A0000001813069F51092010183E70E94480045
:1003B0000E94790025C08981833729F410920101B8
:1003C0000E9479001DC08981843631F089818C3684
:1003D00019F089818737A1F410920001109202016F
:1003E000109201011092030189818C3621F481E081
:1003F0008093030105C08981873711F40E940C01A5
:1004000000000F90DF91CF91FF91EF91BF91AF91DD
:100410009F918F917F916F915F914F913F912F911C
:100420000F9000925F000F901F901895CF93DF936D
:1004300000D0CDB7DEB79A83898385EC90E029811F
:100440003A81232F3327FC01208384EC90E029811B
:10045000FC01208381EC90E028E1FC01208382EC08
:1004600090E026E0FC01208380EC90E020EC30E07E
:10047000F90120812F7BFC01208381EC90E021ECAD
:1004800030E0F90120812068FC01208300000F90FA
:100490000F90DF91CF910895CF93DF93CDB7DEB763
:1004A0008FE590E02FE530E0F90120812068FC0124
:1004B00020838DE390E022E0FC01208389E690E038
:1004C00029E630E0F90120812860FC0120838AE2DE
:1004D00090E02AE230E0F9012081277FFC012083AF
:1004E00084E290E024E230E0F90120812F60FC01F9
:1004F000208388E090E00E94160284E60E94480073
:0E05000085E290E0FC011082FFCFF894FFCF5F
:00000001FF
