:100000000C9434000C9446000C9446000C9446006A
:100010000C9446000C9446000C9446000C94460048
:100020000C9446000C9446000C9446000C94460038
:100030000C9446000C9446000C9446000C94460028
:100040000C9446000C9446000C9446000C94460018
:100050000C9446000C9446000C9446000C94460008
:100060000C9446000C94460011241FBECFEFD8E03C
:10007000DEBFCDBF21E0A0E0B1E001C01D92A43001
:10008000B207E1F70E9448000C946E000C94000047
:10009000CF93DF93CDB7DEB784E290E028E0FC0198
:1000A00020838AE290E0FC01108289E290E0FC016A
:1000B0008081882F90E088709927892B29F085E22C
:1000C00090E0FC011082F1CF85E290E025E230E083
:1000D000F90120812860FC012083E7CFF894FFCF4D
:00000001FF
