:100000000C9434000C943E000C943E000C943E0082
:100010000C943E000C943E000C943E000C943E0068
:100020000C943E000C943E000C943E000C943E0058
:100030000C943E000C943E000C943E000C943E0048
:100040000C943E000C943E000C943E000C943E0038
:100050000C943E000C943E000C943E000C943E0028
:100060000C943E000C943E0011241FBECFEFD8E04C
:10007000DEBFCDBF0E9440000C946B000C940000CA
:10008000219A80918100807E8093810080918100FF
:10009000886180938100809180008C7380938000C0
:1000A00080918000826080938000809180008064D5
:1000B000809380008091800080688093800082E13E
:1000C0009AE79093870080938600809181008460F6
:0A00D00080938100FFCFF894FFCF6A
:00000001FF
