:100000000C9434000C943E000C943E000C943E0082
:100010000C943E000C943E000C943E000C943E0068
:100020000C943E000C943E000C943E000C943E0058
:100030000C943E000C943E000C943E000C943E0048
:100040000C943E000C943E000C943E000C943E0038
:100050000C943E000C943E000C943E000C943E0028
:100060000C943E000C943E0011241FBECFEFD8E04C
:10007000DEBFCDBF0E9440000C9486000C940000AF
:10008000219A80918100807E8093810080918100FF
:10009000886180938100809180008C7380938000C0
:1000A00080918000826080938000809180008068D1
:1000B0008093800084E294EF909387008093860081
:1000C00080918600909187006AE070E00E94720043
:1000D0007093890060938800809181008460809390
:1000E0008100FFCFAA1BBB1B51E107C0AA1FBB1F8A
:1000F000A617B70710F0A61BB70B881F991F5A95B4
:10010000A9F780959095BC01CD010895F894FFCF93
:00000001FF
