:100000000C9434000C943E000C943E000C943E0082
:100010000C943E000C943E000C943E000C943E0068
:100020000C943E000C943E000C943E000C943E0058
:100030000C943E000C943E000C943E000C943E0048
:100040000C943E000C943E000C943E000C943E0038
:100050000C943E000C943E000C943E000C943E0028
:100060000C943E000C943E0011241FBECFEFD8E04C
:10007000DEBFCDBF0E9467000C9417010C940000F6
:100080009091C00095FFFCCF8093C60008958091A9
:100090007A00806480937A0080917A0086FDFCCF9C
:1000A000809178002091790090E0922B08959093B0
:1000B000C5008093C40088E18093C10086E08093EE
:1000C000C200E0ECF0E080818F7B80830895CF93C5
:1000D000DF9300D000D0CDB7DEB788E090E00E947B
:1000E0005700809164008E7F8093640080EC809341
:1000F0007C0080917C00886080937C0080E8809305
:100100007A0033E0E32EF12C0E9447008C014AE094
:10011000BE016F5F7F4F0E94E20089810E94400014
:100120008A810E9440008B810E9440008AE00E94E8
:1001300040008DE00E9440002FEF83ED90E32150BE
:1001400080409040E1F700C00000C80183579F4FF6
:100150009695982F882797958795B7010E94CE008E
:10016000CB014AE0BE016F5F7F4F49960E94E200DB
:1001700089810E9440008A810E9440008AE00E949A
:1001800040008DE00E9440002FEF83ED90E321506E
:1001900080409040E1F700C00000B6CFAA1BBB1B17
:1001A00051E107C0AA1FBB1FA617B70710F0A61B77
:1001B000B70B881F991F5A95A9F780959095BC0198
:1001C000CD010895BB274A3031F4992322F4BDE2D2
:1001D000909581959F4F0C94EE00BB27FB0155270E
:1001E000AA27880F991FAA1FA41710F0A41B839594
:1001F0005051B9F7A05DAA3308F0A95DA19300970B
:1002000079F7B111B1931192CB010C940701DC0184
:10021000FC01672F71917723E1F7329704C07C913D
:100220006D9370836291AE17BF07C8F30895F89479
:02023000FFCFFE
:00000001FF
