:100000000C9434000C9446000C9446000C9446006A
:100010000C9446000C9446000C9446000C94460048
:100020000C9446000C9446000C9446000C94460038
:100030000C9446000C9446000C9448000C94460026
:100040000C9446000C9446000C9446000C94460018
:100050000C9446000C9446000C9446000C94460008
:100060000C9446000C94460011241FBECFEFD8E03C
:10007000DEBFCDBF21E0A0E0B1E001C01D92A23003
:10008000B207E1F70E9480000C94B9000C940000C4
:100090001F920F920FB60F9211248F939F9380910E
:1000A0000101811102C010920001809100018111B3
:1000B0000BC08091010191E0980F9093010190E0B5
:1000C0009093890080938800809101018F3F11F403
:1000D00080930001809100018F3F59F480910101CC
:1000E0009FEF980F9093010190E090938900809387
:1000F00088009F918F910F900FBE0F901F901895C1
:10010000219A80918100807E80938100809181007E
:10011000886180938100809180008C73809380003F
:100120008091800082608093800080918000806C4C
:100130008093800080E091E0909387008093860018
:1001400010928900109288008091810081608093D4
:1001500081008FB780688FBF84B5826084BD8FEFC8
:1001600087BD84E085BD80916E00826080936E00C3
:06017000FFCFF894FFCF61
:00000001FF
