:100000000C9434000C9446000C9446000C9446006A
:100010000C9446000C9446000C9446000C94460048
:100020000C9446000C9446000C9446000C94460038
:100030000C9446000C9446000C9446000C94460028
:100040000C9446000C9446000C9446000C94460018
:100050000C9446000C9446000C9446000C94460008
:100060000C9446000C94460011241FBECFEFD8E03C
:10007000DEBFCDBF21E0A0E0B1E001C01D92A43001
:10008000B207E1F70E9448000C9485000C94000030
:10009000CF93DF93CDB7DEB784E290E028E0FC0198
:1000A000208310920001109201011092020110921F
:1000B000030113C08091000190910101A091020100
:1000C000B09103010196A11DB11D80930001909391
:1000D0000101A0930201B09303018091000190916E
:1000E0000101A0910201B091030180349D40A34021
:1000F000B10504F385E290E025E230E0F9013081BA
:0E01000028E02327FC012083CCCFF894FFCF0A
:00000001FF
